:100000000C94DF000C9407010C9407010C94070179
:100010000C9407010C9407010C9407010C94070140
:100020000C9407010C9407010C9407010C94070130
:100030000C9407010C9407010C9407010C94070120
:100040000C94AE050C9407010C947C050C94560599
:100050000C9407010C9407010C9407010C94070100
:100060000C9407010C94070100407A10F35A00A089
:10007000724E18090010A5D4E80000E87648170071
:1000800000E40B54020000CA9A3B000000E1F505B1
:10009000000080969800000040420F000000A086FB
:1000A00001000000102700000000E803000000002D
:1000B0006400000000000A000000000001000000D1
:1000C00000002C76D888DC674F0823DFC1DFAE59EB
:1000D000E1B1B796E5E3E453C63AE651997696E87E
:1000E000E6C28426EB898C9B62ED407C6FFCEFBC02
:1000F0009C9F40F2BAA56FA5F490055A2AF75C932D
:100100006B6CF9676DC11BFCE0E40D47FEF520E662
:10011000B500D0ED902E0300943577050080841E45
:10012000080000204E0A000000C80C333333330FA0
:10013000986E12831141EF8D2114893BE65516CF3D
:10014000FEE6DB18D1844B381BF77C1D901DA4BB49
:10015000E424203284725E228100C9F124ECA1E5FE
:100160003D2700000000240027002A0000000000B6
:10017000250028002B000000000023002600290095
:10018000040404040404040402020202020203033D
:100190000303030301020408102040800102040845
:1001A00010200102040810200000000800020100D5
:1001B000000304070000000000000000F8051124FF
:1001C0001FBECFEFD8E0DEBFCDBF22E0ACE4B1E090
:1001D00001C01D92AA31B207E1F711E0A0E0B1E041
:1001E000E8E4FFE102C005900D92AC34B107D9F705
:1001F00010E0CFEDD0E004C02197FE010E94AA0DCF
:10020000CE3DD107C9F70E9442060C94A20F0C9470
:100210000000AF92BF92CF92DF92EF92FF920F93C6
:100220001F93CF93DF936C017B018B01040F151F8C
:10023000EB015E01AE18BF08C017D10759F06991F4
:10024000D601ED91FC910190F081E02DC601099558
:10025000892B79F7C501DF91CF911F910F91FF9005
:10026000EF90DF90CF90BF90AF900895FC01448154
:100270005581608171818EEF91E00C940901FC0140
:10028000538D448D252F30E0842F90E0821B930BFB
:10029000541710F0CF96089501970895FC01918DA1
:1002A000828D981761F0A28DAE0FBF2FB11D5D96A4
:1002B0008C91928D9F5F9F73928F90E008958FEF46
:1002C0009FEF0895FC01918D828D981731F0828DFA
:1002D000E80FF11D858D90E008958FEF9FEF089551
:1002E000FC01918D228D892F90E0805C9F4F821BB5
:1002F00091098F739927089581E691E00E9470011A
:1003000021E0892B09F420E0822F089580E090E01D
:10031000892B29F00E947C0181110C940000089522
:10032000FC01A48DA80FB92FB11DA35ABF4F2C916A
:10033000848D90E001968F739927848FA689B78961
:100340002C93A089B1898C91837080648C93938D58
:10035000848D981306C00288F389E02D80818F7DFB
:1003600080830895EF92FF920F931F93CF93DF93B3
:10037000EC0181E0888F9B8D8C8D98131AC0E889E1
:10038000F989808185FF15C09FB7F894EE89FF89B0
:100390006083E889F98980818370806480839FBF4E
:1003A00081E090E0DF91CF911F910F91FF90EF904E
:1003B0000895F62E0B8D10E00F5F1F4F0F7311275E
:1003C000E02E8C8D8E110CC00FB607FCFACFE88999
:1003D000F989808185FFF5CFCE010E949001F1CF90
:1003E000EB8DEC0FFD2FF11DE35AFF4FF0829FB70D
:1003F000F8940B8FEA89FB8980818062CFCFCF93FD
:10040000DF93EC01888D8823B9F0AA89BB89E8893C
:10041000F9898C9185FD03C0808186FD0DC00FB6E2
:1004200007FCF7CF8C9185FFF2CF808185FFEDCF60
:10043000CE010E949001E9CFDF91CF9108958330E2
:1004400081F028F4813099F08230A9F00895873046
:10045000A9F08830C9F08430B1F4809180008F7D9C
:1004600003C0809180008F7780938000089584B5C9
:100470008F7784BD089584B58F7DFBCF8091B000C8
:100480008F778093B00008958091B0008F7DF9CF71
:10049000CF93DF93282F30E0F901E855FE4F849188
:1004A000F901EC56FE4FD491F901E058FE4FC4918A
:1004B000CC23A1F081110E941F02EC2FF0E0EE0F7F
:1004C000FF1FEA58FE4FA591B491EC91ED2381E016
:1004D00090E009F480E0DF91CF91089580E090E012
:1004E000FACF1F93CF93DF93282F30E0F901E8551F
:1004F000FE4F8491F901EC56FE4FD491F901E0587A
:10050000FE4FC491CC23A9F0162F81110E941F0227
:10051000EC2FF0E0EE0FFF1FE459FE4FA591B491D0
:100520008FB7F894EC91111108C0D095DE23DC93BD
:100530008FBFDF91CF911F910895DE2BF8CFCF931E
:10054000DF9390E0FC01EC56FE4F249180589E4FC3
:10055000FC0184918823D1F090E0880F991FFC0161
:10056000EE59FE4FA591B491FC01E459FE4FC5919F
:10057000D49161110EC09FB7F8948C91E22FE09551
:100580008E238C932881E223E8839FBFDF91CF9154
:1005900008958FB7F894EC91E22BEC938FBFF6CFD0
:1005A000089590E080E00895FB0101900020E9F7B4
:1005B0003197AF01461B570BDC01ED91FC91028096
:1005C000F381E02D09948F929F92AF92BF920F9387
:1005D0001F93CF93DF93CDB7DEB7A1970FB6F894F3
:1005E000DEBF0FBECDBF19A2423008F44AE08E0133
:1005F0000F5D1F4F842E912CB12CA12CA5019401CD
:100600000E94740DE62FB901CA01EA3004F5E05DDD
:10061000D801EE938D01232B242B252B79F790E025
:1006200080E0109729F0BD0181E691E00E94D4029C
:10063000A1960FB6F894DEBF0FBECDBFDF91CF916C
:100640001F910F91BF90AF909F908F900895E95C9C
:10065000DFCFCF93DF93EC0188819981009711F070
:100660000E944C0E198218821D821C821B821A82E3
:10067000DF91CF910895FC0180819181009711F065
:100680000C944C0E0895CF93DF93EC0160E08E81C3
:100690000E94710261E08E810E94710260E08E8191
:1006A0000E9471028BE891E00197F1F7DF91CF9101
:1006B0000895CF92DF92EF92FF920F931F93CF9303
:1006C000DF936C017C0187E0E80EF11CD0E0C0E014
:1006D000062F10E0B8010C2E02C0759567950A949C
:1006E000E2F76170F70181917F010E94710221960A
:1006F000C430D10579F7C601DF91CF911F910F91D9
:10070000FF90EF90DF90CF900C944303CF92DF9255
:10071000EF92FF920F931F93CF93DF93EC01F62E8E
:10072000642F8C810E9471028D818F3F19F060E0EF
:100730000E9471020F2D10E08F8584FF25C06E018D
:1007400087E0C80ED11CF12CE12CB8010E2C02C0A0
:10075000759567950A94E2F76170F60181916F01D2
:100760000E947102FFEFEF1AFF0A88E0E816F10419
:1007700061F7CE01DF91CF911F910F91FF90EF9024
:10078000DF90CF900C944303B80184E07595679592
:100790008A95E1F7CE010E9459036F2DCE01DF91BA
:1007A000CF911F910F91FF90EF90DF90CF900C941D
:1007B000590340E0682F8EEF91E00C948603CF93AD
:1007C000DF93823029F490910D02986090930D028E
:1007D000809311021092120280E48093130280E150
:1007E0008093140280E58093150261E080910202FB
:1007F0000E949F02809103028F3F19F061E00E94E6
:100800009F0261E0809104020E949F02CEEFD1E03E
:100810009E012E5F314080910D0284FD0BC084E06B
:1008200090E021962817390744F461E08E810E94F8
:100830009F02EECF88E090E0F4CF8BE39DE001973C
:10084000F1F760E0809102020E94710260E0809105
:1008500004020E947102809103028F3F19F060E050
:100860000E94710280910D0284FD39C063E08EEF19
:1008700091E00E945903CBE4D6E4CE010197F1F751
:1008800063E08EEF91E00E9459032197F1F763E056
:100890008EEF91E00E94590383E592E00197F1F712
:1008A00062E08EEF91E00E94590380910D02806218
:1008B0000E94D90384E080930E028CE00E94D90349
:1008C00081E00E94D9038BE39FE10197F1F782E079
:1008D00080930F0286E0DF91CF910C94D903806260
:1008E0000E94D9038BE496E40197F1F780910D0201
:1008F00080620E94D90383E592E00197F1F780912D
:100900000D0280620E94D903D0CF90911102891705
:1009100010F08FEF890FE82FF0E0E250FE4F84894E
:1009200080680C94D90341E00E94860381E090E046
:1009300008950F931F93CF93DF93EC0188819981E2
:10094000009759F02A813B812617370730F081E064
:10095000DF91CF911F910F9108958B016F5F7F4FB2
:100960000E94D50E009759F0998388831B830A83D0
:100970002C813D81232B59F7FC011082E8CF80E0C8
:10098000E7CFEF92FF920F931F93CF93DF938C01EA
:100990007B01FB0101900020E9F73197E61BF70B83
:1009A000D1F0DC011496CD91DC91CE0FDF1FBE019A
:1009B0000E9499048823B9F0F80120813181848153
:1009C0009581B701820F931F0E949B0FD801159646
:1009D000DC93CE931497C801DF91CF911F910F91B3
:1009E000FF90EF900895C8010E942903F4CFEF9281
:1009F000FF920F931F93CF93DF93EC017B018A014A
:100A0000BA010E94990481110BC0CE010E942903F2
:100A1000CE01DF91CF911F910F91FF90EF9008953C
:100A20001D830C83B701888199810E949B0FF0CFB1
:100A3000EF92FF920F931F93CF93DF93CDB7DEB763
:100A4000A1970FB6F894DEBF0FBECDBF7C01CB01DE
:100A5000BA01F70111821082138212821582148268
:100A60008E010F5F1F4F22E044E00E94980800971C
:100A7000C9F0FC0101900020E9F73197AF01481B54
:100A8000590BBC01C7010E94F704A1960FB6F89458
:100A9000DEBF0FBECDBFDF91CF911F910F91FF90B1
:100AA000EF900895C7010E942903EFCF1F920F9284
:100AB0000FB60F9211242F933F934F935F936F9331
:100AC0007F938F939F93AF93BF93EF93FF9381E6B1
:100AD00091E00E949001FF91EF91BF91AF919F91A2
:100AE0008F917F916F915F914F913F912F910F90D7
:100AF0000FBE0F901F9018951F920F920FB60F9276
:100B000011242F938F939F93EF93FF93E0917101A3
:100B1000F09172018081E0917701F091780182FD7E
:100B20001BC0908180917A018F5F8F7320917B0130
:100B3000821741F0E0917A01F0E0EF59FE4F958F76
:100B400080937A01FF91EF919F918F912F910F9058
:100B50000FBE0F901F9018958081F4CF1F920F92B7
:100B60000FB60F9211242F933F938F939F93AF93C0
:100B7000BF938091510190915201A0915301B09186
:100B800054013091500123E0230F2D3758F5019681
:100B9000A11DB11D209350018093510190935201EA
:100BA000A0935301B093540180914C0190914D0159
:100BB000A0914E01B0914F010196A11DB11D8093EE
:100BC0004C0190934D01A0934E01B0934F01BF9102
:100BD000AF919F918F913F912F910F900FBE0F90EA
:100BE0001F90189526E8230F0296A11DB11DD2CFA4
:100BF000E1E6F1E01382128288EE93E0A0E0B0E03B
:100C000084839583A683B7838AE091E09183808370
:100C100085EC90E09587848784EC90E097878687C1
:100C200080EC90E0918B808B81EC90E0938B828BB9
:100C300082EC90E0958B848B86EC90E0978B868B92
:100C4000118E128E138E148EEEEFF1E0138212824B
:100C50008CE191E0918380838CE084838FEF8583A6
:100C60008BE0868386E0878387E0808788E08187C2
:100C700089E082871386148615861686178681E09A
:100C80000C94DF03CF93DF93CDB7DEB760970FB639
:100C9000F894DEBF0FBECDBF789484B5826084BD6A
:100CA00084B5816084BD85B5826085BD85B5816070
:100CB00085BD80916E00816080936E0010928100EE
:100CC00080918100826080938100809181008160A9
:100CD000809381008091800081608093800080916A
:100CE000B10084608093B1008091B00081608093F6
:100CF000B00080917A00846080937A0080917A00BD
:100D0000826080937A0080917A00816080937A007B
:100D100080917A00806880937A001092C10060E030
:100D200083E00E949F0260E082E00E949F0282E0D6
:100D30000E94DF03E0917101F091720182E08083F3
:100D4000E0916D01F0916E011082E0916F01F091E0
:100D500070018FEC808310927901E0917501F09120
:100D6000760186E08083E0917301F09174018081C7
:100D700080618083E0917301F091740180818860CB
:100D80008083E0917301F091740180818068808399
:100D9000E0917301F091740180818F7D808382E006
:100DA000282E312C00E010E080E00E94850464E2EF
:100DB00071E08EEF91E00E94D40281E00E948504F0
:100DC00040915D0150915E0160915F017091600101
:100DD000CE0107960E9418051A8219821C821B8276
:100DE0001E821D826F8178856115710531F04B85FA
:100DF0005C85CE0101960E94F70460E371E0CE01AC
:100E000001960E94C1040E943601CE0101960E9403
:100E10003B03CE0107960E943B0382E00E944802FA
:100E2000892B09F085C08FB7F8942091510130913A
:100E3000520140915301509154012D873E874F87B5
:100E4000588B8FBF82E00E944802019761F7609142
:100E50005B0170915C016F5F7F4F70935C016093E9
:100E60005B01072E000C880B990B0E94F40A2BEDF6
:100E70003FE049E450E40E94530B9B01AC010E9407
:100E8000490C6093570170935801809359019093D6
:100E90005A0180915501909156016D857E85681BA0
:100EA000790B072E000C880B990B0E94F40A9B010A
:100EB000AC016BED7FE089EC90E40E94B50C6B0116
:100EC0007C014B015C01C0925D01D0925E01E09219
:100ED0005F01F0926001AC019B010E945B0D65E334
:100EE00071E081111BC026013701E89477F82FEFDC
:100EF0003FEF4FE75FE7C301B2010E945B0D811135
:100F00009EC02FEF3FEF4FE75FE7C301B2010E94A2
:100F1000ED0A18160CF093C069E371E081E691E0E8
:100F20000E94D4024D855E85509356014093550131
:100F300083E00E944802F82EE92E80FD34C080E054
:100F40000E94850464E271E08EEF91E00E94D40279
:100F500081E00E94850440E050E0BA01CE0107968E
:100F60000E9418051A8219821C821B821E821D8211
:100F70006F8178856115710531F04B855C85CE01F7
:100F800001960E94F70461E371E0CE0101960E9490
:100F9000C1040E943601CE0101960E943B03CE019E
:100FA00007960E943B038F2D9E2DB1010E94600D7C
:100FB0000197C9F580E00E94850461E471E08EEF3D
:100FC00091E00E94D40281E00E9485044091570183
:100FD000509158016091590170915A01CE010796C4
:100FE0000E9418051A8219821C821B821E821D8291
:100FF0006F8178856115710531F04B855C85CE0177
:1010000001960E94F7046AE471E0CE0101960E9405
:10101000C1040E943601CE0101960E943B03CE011D
:1010200007960E943B030115110509F4BDCE0E94ED
:101030007C01882309F4B8CE0E940000B5CE2FEFC2
:101040003FEF4FE75FE4C701B6010E94560D181647
:101050001CF46DE371E062CF2FEF3FEF4FE75FECE1
:10106000C701B6010E94ED0A87FDF3CF20E030E012
:10107000A901C701B6010E94ED0A87FF0BC06DE20E
:1010800081E691E00E94B20146015701B7FAB0949F
:10109000B7F8B0942AE037ED43EA5BE3C501B40149
:1010A0000E94490C4B015C010E94270D6B017C01E1
:1010B0000E94F20A9B01AC01C501B4010E94480CD8
:1010C0004B015C014AE0C701B6010E94E3026EE2F7
:1010D00081E691E00E94B20120E030E040E251E47C
:1010E000C501B4010E94530B4B015C010E94270D06
:1010F0006B01F12CE12C4AE0C701B6010E94E3022A
:10110000C701B6010E94F20A9B01AC01C501B401FE
:101110000E94480C20E030E040E251E40E94530B72
:101120000E94270D90E080E04AE00E94E302FACEA0
:10113000EF920F931F93CF93DF93E80134E047FDC5
:1011400034E1042E000C550B57FF03C05195419517
:101150005109E32E022F242FAE010E94B608CE01C2
:10116000DF91CF911F910F91EF900895A9E0B0E02A
:10117000ECEBF8E00C94170C6A01F22EB02E102F55
:10118000FBE3AF2EA01608F41BE31F5F012F27E03F
:10119000AE014F5F5F4F0E94150ABC018981982FF5
:1011A0009970913009F43FC09BE2E1FC04C09E2D90
:1011B0009170E0FC3AC05E2D5071E82FE87083FF1B
:1011C00046C084E0911101C083E0EF2DE81B8F152C
:1011D00008F0E0E0D6018E2F20E2552351F199234B
:1011E00029F0D6019C93C60101966C0196012D5FF2
:1011F0003F4FE2FE24C08EE4D6018C9391E4119619
:101200009C93119712968C93D9018E2F90E28111A5
:101210001BC0E20FF32FF11D10828EEF9FEF299676
:10122000ECE00C94330C9DE2C6CF90E2C4CF2D933A
:1012300081508111FCCFCE0ED11CE0E0D0CF8EE6E4
:10124000D6018C9391E6DBCF9D938150E0CF482F60
:10125000447082FF3DC084E0911101C083E08F158E
:1012600010F4EF2DE81BD6018E2F20E2552309F153
:10127000992329F0D6019C93C60101966C01960131
:101280002D5F3F4FE2FE1BC089E4D6018C938EE4B4
:1012900011968C93119786E412968C93D9018E2F18
:1012A00090E2882309F4B5CF9D938150FACF2D9316
:1012B00081508111FCCFCE0ED11CE0E0D9CF89E660
:1012C000D6018C938EE611968C93119786E6E4CF27
:1012D0009B0177FF02C030E020E0A1E0B0E0911177
:1012E00002C0B0E0A0E0F9013196AE0FBF1F8B2C19
:1012F000912CBB2009F461C05401EFEFAE1ABE0A75
:10130000AA0DBB1DFA161B0619F014F04F2D4A1B2F
:10131000511188C0E3FC59C07601A42FB0E2A1119D
:101320004FC0C40ED11C992309F45BC040E0D60124
:101330001196F60190836D01552309F448C0012FE1
:10134000060F9A81582F507184FF03C0913309F41E
:10135000015010160CF047C0093008F008E0EEE22A
:10136000FE2E5B01A01AB108850191948194910829
:101370002F3F320729F4D601FC92F60131966F0116
:101380006217730794F1021713077CF5DB01A21BA8
:10139000B30BAA24A394B12CAC0EBD1EAA0DBB1D89
:1013A00011968C9121503109D601119628153905D5
:1013B000F4F0F60180836D01DBCFB12CA12CA0CF1E
:1013C000F701B1937F01A150AACF9111B0CFD601FF
:1013D000942F50E302C05D9391509111FCCFC40E45
:1013E000D11C40E0ACCF01E0BACF80E3DBCF621785
:1013F000730731F4963388F4953311F4552369F06B
:10140000F6018083FD01842F90E2811108C0A40FB2
:10141000B11D1C9290E080E002CF81E3F1CF919367
:101420008150F3CF911183CF8ACF283008F027E085
:101430003327DA01990F311D87FD91600096610510
:10144000710539F432602E5F3D9330E32A95E1F760
:1014500008959F3F30F080387105610509F03C5FC9
:101460003C5F3D93913008F08068911DDF93CF93EE
:101470001F930F93FF92EF92192F987F9695E92F64
:1014800096959695E90FFF27EE53FF4F992733273F
:10149000EE24FF24A701E70105900894079428F49F
:1014A000360FE71EF81E491F511D660F771F881F54
:1014B000991F0694A1F70590079428F4E70EF81EEB
:1014C000491F561FC11D770F881F991F661F06945D
:1014D000A1F70590079428F4F80E491F561FC71F5F
:1014E000D11D880F991F661F771F0694A1F70590DD
:1014F000079420F4490F561FC71FD81F990F661F66
:10150000771F881F0694A9F784911095177041F0F2
:10151000D695C79557954795F794E7941A95C1F7CF
:10152000E8E6F0E0689415901591359165919591F4
:1015300005907FE27395E118F10A430B560BC90B36
:10154000D009C0F7E10CF11E431F561FC91FD01D63
:101550007EF4703311F48A95E6CFE894015030F0B0
:10156000080F0AF40027021708F4202F2395022FF2
:101570007A3328F079E37D932A95E9F710C07D93BB
:101580002A9589F606949795679537951795179438
:10159000E118F10A430B560BC90BD00998F02395BB
:1015A0007E9173957A3308F070E37C932013B8F73B
:1015B0007E9170617D9330F0839571E37D9370E34C
:1015C0002A95E1F71124EF90FF900F911F91CF9191
:1015D000DF91992787FD909508950E942F0B08F4BD
:1015E00081E00895E89409C097FB3EF490958095BA
:1015F000709561957F4F8F4F9F4F9923A9F0F92FD9
:1016000096E9BB279395F695879577956795B79556
:10161000F111F8CFFAF4BB0F11F460FF1BC06F5F3C
:101620007F4F8F4F9F4F16C0882311F096E911C04E
:10163000772321F09EE8872F762F05C0662371F06F
:1016400096E8862F70E060E02AF09A95660F771F83
:10165000881FDAF7880F9695879597F90895990F5F
:101660000008550FAA0BE0E8FEEF16161706E8076C
:10167000F907C0F012161306E407F50798F0621B8D
:10168000730B840B950B39F40A2661F0232B242B62
:10169000252B21F408950A2609F4A140A6958FEF81
:1016A000811D811D08950E94660B0C94D70B0E942A
:1016B000C90B38F00E94D00B20F0952311F00C9448
:1016C000C00B0C94C60B11240C940B0C0E94E80B5D
:1016D00070F3959FC1F3950F50E0551F629FF00185
:1016E000729FBB27F00DB11D639FAA27F00DB11D9E
:1016F000AA1F649F6627B00DA11D661F829F222727
:10170000B00DA11D621F739FB00DA11D621F839FAD
:10171000A00D611D221F749F3327A00D611D231F83
:10172000849F600D211D822F762F6A2F11249F57D1
:1017300050409AF0F1F088234AF0EE0FFF1FBB1FD4
:10174000661F771F881F91505040A9F79E3F510593
:1017500080F00C94C00B0C940B0C5F3FE4F3983EAC
:10176000D4F3869577956795B795F795E7959F5F3D
:10177000C1F7FE2B880F911D9695879597F90895CF
:1017800097F99F6780E870E060E008959FEF80EC34
:10179000089500240A9416161706180609060895D7
:1017A00000240A9412161306140605060895092E3D
:1017B0000394000C11F4882352F0BB0F40F4BF2BAC
:1017C00011F460FF04C06F5F7F4F8F4F9F4F0895EC
:1017D00057FD9058440F551F59F05F3F71F04795E2
:1017E000880F97FB991F61F09F3F79F087950895C7
:1017F000121613061406551FF2CF4695F1DF08C0E6
:10180000161617061806991FF1CF86957105610502
:1018100008940895E894BB2766277727CB0197F9AA
:1018200008952F923F924F925F926F927F928F9284
:101830009F92AF92BF92CF92DF92EF92FF920F935F
:101840001F93CF93DF93CDB7DEB7CA1BDB0B0FB669
:10185000F894DEBF0FBECDBF09942A883988488826
:101860005F846E847D848C849B84AA84B984C884BC
:10187000DF80EE80FD800C811B81AA81B981CE0FB3
:10188000D11D0FB6F894DEBF0FBECDBFED01089598
:101890005058BB27AA270E94600C0C94D70B0E94BB
:1018A000C90B38F00E94D00B20F039F49F3F19F497
:1018B00026F40C94C60B0EF4E095E7FB0C94C00BD9
:1018C000E92F0E94E80B58F3BA17620773078407E1
:1018D000950720F079F4A6F50C940A0C0EF4E09527
:1018E0000B2EBA2FA02D0B01B90190010C01CA01DA
:1018F000A0011124FF27591B99F0593F50F4503E85
:1019000068F11A16F040A22F232F342F4427585F76
:10191000F3CF469537952795A795F0405395C9F78E
:101920007EF41F16BA0B620B730B840BBAF0915046
:10193000A1F0FF0FBB1F661F771F881FC2F70EC0E5
:10194000BA0F621F731F841F48F4879577956795B8
:10195000B795F7959E3F08F0B0CF9395880F08F0A4
:101960009927EE0F9795879508950E94C90C0C94BE
:10197000D70B0E94D00B58F00E94C90B40F029F4FD
:101980005F3F29F00C94C00B51110C940B0C0C947C
:10199000C60B0E94E80B68F39923B1F3552391F32A
:1019A000951B550BBB27AA2762177307840738F0CE
:1019B0009F5F5F4F220F331F441FAA1FA9F335D02B
:1019C0000E2E3AF0E0E832D091505040E695001CDF
:1019D000CAF72BD0FE2F29D0660F771F881FBB1F99
:1019E000261737074807AB07B0E809F0BB0B802D77
:1019F000BF01FF2793585F4F3AF09E3F510578F0A3
:101A00000C94C00B0C940B0C5F3FE4F3983ED4F3A2
:101A1000869577956795B795F7959F5FC9F7880F76
:101A2000911D9695879597F90895E1E0660F771FC8
:101A3000881FBB1F621773078407BA0720F0621B59
:101A4000730B840BBA0BEE1F88F7E09508950E9484
:101A5000F00B88F09F5798F0B92F9927B751B0F045
:101A6000E1F0660F771F881F991F1AF0BA95C9F722
:101A700014C0B13091F00E940A0CB1E008950C94AA
:101A80000A0C672F782F8827B85F39F0B93FCCF35D
:101A9000869577956795B395D9F73EF4909580959F
:101AA000709561957F4F8F4F9F4F08950E942F0B28
:101AB00008F48FEF08950E942F0B880B990B08955F
:101AC00097FB072E16F4009407D077FD09D00E94EB
:101AD000960D07FC05D03EF4909581959F4F089593
:101AE000709561957F4F0895A1E21A2EAA1BBB1B2A
:101AF000FD010DC0AA1FBB1FEE1FFF1FA217B307DA
:101B0000E407F50720F0A21BB30BE40BF50B661FEF
:101B1000771F881F991F1A9469F7609570958095B3
:101B200090959B01AC01BD01CF010895AA1BBB1B81
:101B300051E107C0AA1FBB1FA617B70710F0A61BCD
:101B4000B70B881F991F5A95A9F780959095BC01EE
:101B5000CD010895EE0FFF1F0590F491E02D09943B
:101B60000F931F93CF93DF938230910510F482E09F
:101B700090E0E0911802F091190230E020E0B0E02E
:101B8000A0E0309799F42115310509F44AC0281BCB
:101B9000390B24303105D8F58A819B816115710597
:101BA00089F1FB0193838283FE0111C04081518141
:101BB0000281138148175907E0F04817590799F433
:101BC000109761F012960C93129713961C9332960D
:101BD000CF01DF91CF911F910F91089500931802CB
:101BE00010931902F4CF2115310551F04217530714
:101BF00038F0A901DB019A01BD01DF01F801C1CF75
:101C0000EF01F9CF9093190280931802CDCFFE0116
:101C1000E20FF31F81939193225031093983288376
:101C2000D7CF2091160230911702232B41F4209137
:101C30000201309103013093170220931602209184
:101C40000001309101012115310541F42DB73EB756
:101C50004091040150910501241B350BE0911602BF
:101C6000F0911702E217F307A0F42E1B3F0B281781
:101C7000390778F0AC014E5F5F4F2417350748F005
:101C80004E0F5F1F5093170240931602819391935A
:101C90009FCFF0E0E0E09CCFCF93DF930097E9F097
:101CA000FC01329713821282A0911802B09119029E
:101CB000ED0130E020E01097A1F420813181820F06
:101CC000931F20911602309117022817390709F047
:101CD00061C0F0931702E0931602DF91CF9108954F
:101CE000EA01CE17DF07E8F54A815B819E014115C5
:101CF0005105B1F7E901FB83EA8349915991C40F7A
:101D0000D51FEC17FD0761F4808191810296840F45
:101D1000951FE90199838883828193819B838A83BC
:101D2000F0E0E0E012968D919C9113970097B9F541
:101D30002D913C911197CD010296820F931F209116
:101D40001602309117022817390739F6309751F5E6
:101D50001092190210921802B0931702A093160263
:101D6000BCCFD383C28340815181840F951FC81794
:101D7000D90761F44E5F5F4F88819981480F591FE1
:101D8000518340838A819B8193838283211531050E
:101D900009F0B0CFF0931902E09318029ECFFD0135
:101DA000DC01C0CF13821282D7CFB0E0A0E0EBED10
:101DB000FEE00C94130C8C01009751F4CB010E94AF
:101DC000B00D8C01C801CDB7DEB7E0E10C942F0C4B
:101DD000FC01E60FF71F9C0122503109E217F307BF
:101DE00008F49DC0D901CD91DC911197C617D70792
:101DF00098F0C530D10530F3CE01049786179707C8
:101E000008F3C61BD70B2297C193D1936D937C9394
:101E1000CF010E944C0ED6CF5B01AC1ABD0A4C011B
:101E20008C0E9D1EA0911802B0911902512C412CCC
:101E3000F12CE12C109731F5809116029091170248
:101E40008815990509F05CC04616570608F058C079
:101E50008091000190910101009741F48DB79EB7E8
:101E60004091040150910501841B950BE817F90777
:101E700008F055C0F0931702E0931602F901718340
:101E80006083A0CF8D919C91119712966C901297C0
:101E900013967C901397A815B90559F56C0142E08B
:101EA000C40ED11CCA14DB0420F1AC014A195B0931
:101EB000DA011296159780F0628273825183408313
:101EC000D9016D937C93E114F10471F0D70113965D
:101ED000FC93EE93129776CF22968C0F9D1FF901FB
:101EE00091838083F301EFCFF0931902E0931802FE
:101EF00069CF4816590608F42C017D01D3019ACF09
:101F0000CB010E94B00D7C01009749F0AE01B801F1
:101F10000E94920FC8010E944C0E870153CF10E01F
:101F200000E050CFFB01DC0102C001900D92415056
:101F30005040D8F70895FB01DC0101900D9200207C
:081F4000E1F70895F894FFCFCA
:101F480000001A02800000000000B20109013F01F0
:101F5800FF0170014E0162010000000093040901B5
:101F6800D102D00253706565646F6D657465720047
:101F7800206D2F73006E616E00696E66006F766665
:0C1F8800004F646F6D65746572006D00A1
:00000001FF
